{
  "_format": "hh-sol-artifact-1",
  "contractName": "ERC20FlashLender",
  "sourceName": "contracts/ERC20FlashLender.sol",
  "abi": [
    {
      "inputs": [],
      "name": "InvalidInitialization",
      "type": "error"
    },
    {
      "inputs": [],
      "name": "NotInitializing",
      "type": "error"
    },
    {
      "inputs": [
        {
          "internalType": "address",
          "name": "owner",
          "type": "address"
        }
      ],
      "name": "OwnableInvalidOwner",
      "type": "error"
    },
    {
      "inputs": [
        {
          "internalType": "address",
          "name": "account",
          "type": "address"
        }
      ],
      "name": "OwnableUnauthorizedAccount",
      "type": "error"
    },
    {
      "inputs": [],
      "name": "ReentrancyGuardReentrantCall",
      "type": "error"
    },
    {
      "inputs": [
        {
          "internalType": "address",
          "name": "token",
          "type": "address"
        }
      ],
      "name": "SafeERC20FailedOperation",
      "type": "error"
    },
    {
      "anonymous": false,
      "inputs": [
        {
          "indexed": true,
          "internalType": "address",
          "name": "user",
          "type": "address"
        },
        {
          "indexed": true,
          "internalType": "address",
          "name": "token",
          "type": "address"
        },
        {
          "indexed": false,
          "internalType": "uint256",
          "name": "amount",
          "type": "uint256"
        },
        {
          "indexed": false,
          "internalType": "uint256",
          "name": "shares",
          "type": "uint256"
        }
      ],
      "name": "Deposit",
      "type": "event"
    },
    {
      "anonymous": false,
      "inputs": [
        {
          "indexed": true,
          "internalType": "address",
          "name": "user",
          "type": "address"
        },
        {
          "indexed": true,
          "internalType": "address",
          "name": "token",
          "type": "address"
        },
        {
          "indexed": false,
          "internalType": "uint256",
          "name": "fees",
          "type": "uint256"
        }
      ],
      "name": "FeesWithdrawn",
      "type": "event"
    },
    {
      "anonymous": false,
      "inputs": [
        {
          "indexed": true,
          "internalType": "address",
          "name": "borrower",
          "type": "address"
        },
        {
          "indexed": true,
          "internalType": "address",
          "name": "token",
          "type": "address"
        },
        {
          "indexed": false,
          "internalType": "uint256",
          "name": "amount",
          "type": "uint256"
        },
        {
          "indexed": false,
          "internalType": "uint256",
          "name": "fee",
          "type": "uint256"
        }
      ],
      "name": "FlashLoan",
      "type": "event"
    },
    {
      "anonymous": false,
      "inputs": [
        {
          "indexed": false,
          "internalType": "uint64",
          "name": "version",
          "type": "uint64"
        }
      ],
      "name": "Initialized",
      "type": "event"
    },
    {
      "anonymous": false,
      "inputs": [
        {
          "indexed": true,
          "internalType": "address",
          "name": "token",
          "type": "address"
        },
        {
          "indexed": false,
          "internalType": "uint256",
          "name": "oldFee",
          "type": "uint256"
        },
        {
          "indexed": false,
          "internalType": "uint256",
          "name": "newFee",
          "type": "uint256"
        }
      ],
      "name": "LPFeeChangeExecuted",
      "type": "event"
    },
    {
      "anonymous": false,
      "inputs": [
        {
          "indexed": true,
          "internalType": "address",
          "name": "token",
          "type": "address"
        },
        {
          "indexed": false,
          "internalType": "uint256",
          "name": "newFeeBps",
          "type": "uint256"
        },
        {
          "indexed": false,
          "internalType": "uint256",
          "name": "executionBlock",
          "type": "uint256"
        }
      ],
      "name": "LPFeeChangeProposed",
      "type": "event"
    },
    {
      "anonymous": false,
      "inputs": [
        {
          "indexed": true,
          "internalType": "address",
          "name": "token",
          "type": "address"
        },
        {
          "indexed": true,
          "internalType": "address",
          "name": "voter",
          "type": "address"
        },
        {
          "indexed": false,
          "internalType": "uint256",
          "name": "feeAmount",
          "type": "uint256"
        },
        {
          "indexed": false,
          "internalType": "uint256",
          "name": "voterShares",
          "type": "uint256"
        }
      ],
      "name": "LPFeeVoteCast",
      "type": "event"
    },
    {
      "anonymous": false,
      "inputs": [
        {
          "indexed": false,
          "internalType": "uint256",
          "name": "oldFee",
          "type": "uint256"
        },
        {
          "indexed": false,
          "internalType": "uint256",
          "name": "newFee",
          "type": "uint256"
        }
      ],
      "name": "ManagementFeeChanged",
      "type": "event"
    },
    {
      "anonymous": false,
      "inputs": [
        {
          "indexed": true,
          "internalType": "address",
          "name": "token",
          "type": "address"
        },
        {
          "indexed": false,
          "internalType": "uint256",
          "name": "amount",
          "type": "uint256"
        }
      ],
      "name": "ManagementFeeWithdrawn",
      "type": "event"
    },
    {
      "anonymous": false,
      "inputs": [
        {
          "indexed": true,
          "internalType": "address",
          "name": "borrower",
          "type": "address"
        },
        {
          "indexed": false,
          "internalType": "address[]",
          "name": "tokens",
          "type": "address[]"
        },
        {
          "indexed": false,
          "internalType": "uint256[]",
          "name": "amounts",
          "type": "uint256[]"
        },
        {
          "indexed": false,
          "internalType": "uint256[]",
          "name": "fees",
          "type": "uint256[]"
        }
      ],
      "name": "MultiFlashLoan",
      "type": "event"
    },
    {
      "anonymous": false,
      "inputs": [
        {
          "indexed": true,
          "internalType": "address",
          "name": "previousOwner",
          "type": "address"
        },
        {
          "indexed": true,
          "internalType": "address",
          "name": "newOwner",
          "type": "address"
        }
      ],
      "name": "OwnershipTransferred",
      "type": "event"
    },
    {
      "anonymous": false,
      "inputs": [
        {
          "indexed": true,
          "internalType": "address",
          "name": "user",
          "type": "address"
        },
        {
          "indexed": true,
          "internalType": "address",
          "name": "token",
          "type": "address"
        },
        {
          "indexed": false,
          "internalType": "uint256",
          "name": "principal",
          "type": "uint256"
        },
        {
          "indexed": false,
          "internalType": "uint256",
          "name": "fees",
          "type": "uint256"
        }
      ],
      "name": "Withdraw",
      "type": "event"
    },
    {
      "inputs": [],
      "name": "DEFAULT_LP_FEE_BPS",
      "outputs": [
        {
          "internalType": "uint256",
          "name": "",
          "type": "uint256"
        }
      ],
      "stateMutability": "view",
      "type": "function"
    },
    {
      "inputs": [],
      "name": "ENTRY_EXIT_FEE",
      "outputs": [
        {
          "internalType": "uint256",
          "name": "",
          "type": "uint256"
        }
      ],
      "stateMutability": "view",
      "type": "function"
    },
    {
      "inputs": [],
      "name": "MAX_LP_FEE_BPS",
      "outputs": [
        {
          "internalType": "uint256",
          "name": "",
          "type": "uint256"
        }
      ],
      "stateMutability": "view",
      "type": "function"
    },
    {
      "inputs": [],
      "name": "MAX_MANAGEMENT_FEE_PERCENTAGE",
      "outputs": [
        {
          "internalType": "uint256",
          "name": "",
          "type": "uint256"
        }
      ],
      "stateMutability": "view",
      "type": "function"
    },
    {
      "inputs": [],
      "name": "MINIMUM_DEPOSIT",
      "outputs": [
        {
          "internalType": "uint256",
          "name": "",
          "type": "uint256"
        }
      ],
      "stateMutability": "view",
      "type": "function"
    },
    {
      "inputs": [],
      "name": "PROPOSAL_DELAY",
      "outputs": [
        {
          "internalType": "uint256",
          "name": "",
          "type": "uint256"
        }
      ],
      "stateMutability": "view",
      "type": "function"
    },
    {
      "inputs": [],
      "name": "VIRTUAL_SHARES",
      "outputs": [
        {
          "internalType": "uint256",
          "name": "",
          "type": "uint256"
        }
      ],
      "stateMutability": "view",
      "type": "function"
    },
    {
      "inputs": [
        {
          "internalType": "address",
          "name": "",
          "type": "address"
        }
      ],
      "name": "collectedManagementFees",
      "outputs": [
        {
          "internalType": "uint256",
          "name": "",
          "type": "uint256"
        }
      ],
      "stateMutability": "view",
      "type": "function"
    },
    {
      "inputs": [
        {
          "internalType": "address",
          "name": "token",
          "type": "address"
        },
        {
          "internalType": "uint256",
          "name": "amount",
          "type": "uint256"
        }
      ],
      "name": "deposit",
      "outputs": [],
      "stateMutability": "nonpayable",
      "type": "function"
    },
    {
      "inputs": [
        {
          "internalType": "address",
          "name": "",
          "type": "address"
        },
        {
          "internalType": "uint256",
          "name": "",
          "type": "uint256"
        }
      ],
      "name": "depositedTokensByUser",
      "outputs": [
        {
          "internalType": "address",
          "name": "",
          "type": "address"
        }
      ],
      "stateMutability": "view",
      "type": "function"
    },
    {
      "inputs": [
        {
          "internalType": "address",
          "name": "",
          "type": "address"
        },
        {
          "internalType": "address",
          "name": "",
          "type": "address"
        }
      ],
      "name": "deposits",
      "outputs": [
        {
          "internalType": "uint256",
          "name": "",
          "type": "uint256"
        }
      ],
      "stateMutability": "view",
      "type": "function"
    },
    {
      "inputs": [
        {
          "internalType": "address",
          "name": "token",
          "type": "address"
        },
        {
          "internalType": "uint256",
          "name": "newFeeBps",
          "type": "uint256"
        }
      ],
      "name": "executeLPFeeChange",
      "outputs": [],
      "stateMutability": "nonpayable",
      "type": "function"
    },
    {
      "inputs": [
        {
          "internalType": "address",
          "name": "token",
          "type": "address"
        },
        {
          "internalType": "uint256",
          "name": "amount",
          "type": "uint256"
        },
        {
          "internalType": "address",
          "name": "receiver",
          "type": "address"
        },
        {
          "internalType": "bytes",
          "name": "data",
          "type": "bytes"
        }
      ],
      "name": "flashLoan",
      "outputs": [],
      "stateMutability": "nonpayable",
      "type": "function"
    },
    {
      "inputs": [
        {
          "internalType": "address[]",
          "name": "tokens",
          "type": "address[]"
        },
        {
          "internalType": "uint256[]",
          "name": "amounts",
          "type": "uint256[]"
        },
        {
          "internalType": "address",
          "name": "receiver",
          "type": "address"
        },
        {
          "internalType": "bytes",
          "name": "data",
          "type": "bytes"
        }
      ],
      "name": "flashLoanMultiple",
      "outputs": [],
      "stateMutability": "nonpayable",
      "type": "function"
    },
    {
      "inputs": [],
      "name": "getDepositedTokens",
      "outputs": [
        {
          "internalType": "address[]",
          "name": "",
          "type": "address[]"
        }
      ],
      "stateMutability": "view",
      "type": "function"
    },
    {
      "inputs": [
        {
          "internalType": "address",
          "name": "token",
          "type": "address"
        }
      ],
      "name": "getEffectiveLPFee",
      "outputs": [
        {
          "internalType": "uint256",
          "name": "",
          "type": "uint256"
        }
      ],
      "stateMutability": "view",
      "type": "function"
    },
    {
      "inputs": [
        {
          "internalType": "address",
          "name": "user",
          "type": "address"
        }
      ],
      "name": "getUserDepositedTokens",
      "outputs": [
        {
          "internalType": "address[]",
          "name": "",
          "type": "address[]"
        }
      ],
      "stateMutability": "view",
      "type": "function"
    },
    {
      "inputs": [
        {
          "internalType": "address",
          "name": "token",
          "type": "address"
        },
        {
          "internalType": "address",
          "name": "user",
          "type": "address"
        }
      ],
      "name": "getWithdrawableAmount",
      "outputs": [
        {
          "internalType": "uint256",
          "name": "netAmount",
          "type": "uint256"
        },
        {
          "internalType": "uint256",
          "name": "grossAmount",
          "type": "uint256"
        },
        {
          "internalType": "uint256",
          "name": "principal",
          "type": "uint256"
        },
        {
          "internalType": "uint256",
          "name": "fees",
          "type": "uint256"
        },
        {
          "internalType": "uint256",
          "name": "exitFee",
          "type": "uint256"
        }
      ],
      "stateMutability": "view",
      "type": "function"
    },
    {
      "inputs": [
        {
          "internalType": "uint256",
          "name": "_mgmtFeePercentage",
          "type": "uint256"
        }
      ],
      "name": "initialize",
      "outputs": [],
      "stateMutability": "nonpayable",
      "type": "function"
    },
    {
      "inputs": [
        {
          "internalType": "address",
          "name": "",
          "type": "address"
        },
        {
          "internalType": "address",
          "name": "",
          "type": "address"
        }
      ],
      "name": "lpFeeAmountSelected",
      "outputs": [
        {
          "internalType": "uint256",
          "name": "",
          "type": "uint256"
        }
      ],
      "stateMutability": "view",
      "type": "function"
    },
    {
      "inputs": [
        {
          "internalType": "address",
          "name": "",
          "type": "address"
        },
        {
          "internalType": "uint256",
          "name": "",
          "type": "uint256"
        }
      ],
      "name": "lpFeeSharesTotalVotes",
      "outputs": [
        {
          "internalType": "uint256",
          "name": "",
          "type": "uint256"
        }
      ],
      "stateMutability": "view",
      "type": "function"
    },
    {
      "inputs": [
        {
          "internalType": "address",
          "name": "",
          "type": "address"
        }
      ],
      "name": "lpFeesBps",
      "outputs": [
        {
          "internalType": "uint256",
          "name": "",
          "type": "uint256"
        }
      ],
      "stateMutability": "view",
      "type": "function"
    },
    {
      "inputs": [],
      "name": "managementFeePercentage",
      "outputs": [
        {
          "internalType": "uint256",
          "name": "",
          "type": "uint256"
        }
      ],
      "stateMutability": "view",
      "type": "function"
    },
    {
      "inputs": [],
      "name": "owner",
      "outputs": [
        {
          "internalType": "address",
          "name": "",
          "type": "address"
        }
      ],
      "stateMutability": "view",
      "type": "function"
    },
    {
      "inputs": [
        {
          "internalType": "address",
          "name": "token",
          "type": "address"
        },
        {
          "internalType": "uint256",
          "name": "newFeeBps",
          "type": "uint256"
        }
      ],
      "name": "proposeLPFeeChange",
      "outputs": [],
      "stateMutability": "nonpayable",
      "type": "function"
    },
    {
      "inputs": [
        {
          "internalType": "address",
          "name": "",
          "type": "address"
        },
        {
          "internalType": "uint256",
          "name": "",
          "type": "uint256"
        }
      ],
      "name": "proposedFeeChanges",
      "outputs": [
        {
          "internalType": "uint256",
          "name": "",
          "type": "uint256"
        }
      ],
      "stateMutability": "view",
      "type": "function"
    },
    {
      "inputs": [],
      "name": "renounceOwnership",
      "outputs": [],
      "stateMutability": "nonpayable",
      "type": "function"
    },
    {
      "inputs": [
        {
          "internalType": "uint256",
          "name": "percentage",
          "type": "uint256"
        }
      ],
      "name": "setManagementFee",
      "outputs": [],
      "stateMutability": "nonpayable",
      "type": "function"
    },
    {
      "inputs": [
        {
          "internalType": "address",
          "name": "",
          "type": "address"
        },
        {
          "internalType": "address",
          "name": "",
          "type": "address"
        }
      ],
      "name": "shares",
      "outputs": [
        {
          "internalType": "uint256",
          "name": "",
          "type": "uint256"
        }
      ],
      "stateMutability": "view",
      "type": "function"
    },
    {
      "inputs": [
        {
          "internalType": "uint256",
          "name": "",
          "type": "uint256"
        }
      ],
      "name": "tokensDeposited",
      "outputs": [
        {
          "internalType": "address",
          "name": "",
          "type": "address"
        }
      ],
      "stateMutability": "view",
      "type": "function"
    },
    {
      "inputs": [
        {
          "internalType": "address",
          "name": "",
          "type": "address"
        }
      ],
      "name": "tokensDepositedIndex",
      "outputs": [
        {
          "internalType": "uint256",
          "name": "",
          "type": "uint256"
        }
      ],
      "stateMutability": "view",
      "type": "function"
    },
    {
      "inputs": [
        {
          "internalType": "address",
          "name": "",
          "type": "address"
        }
      ],
      "name": "totalLiquidity",
      "outputs": [
        {
          "internalType": "uint256",
          "name": "",
          "type": "uint256"
        }
      ],
      "stateMutability": "view",
      "type": "function"
    },
    {
      "inputs": [
        {
          "internalType": "address",
          "name": "",
          "type": "address"
        }
      ],
      "name": "totalShares",
      "outputs": [
        {
          "internalType": "uint256",
          "name": "",
          "type": "uint256"
        }
      ],
      "stateMutability": "view",
      "type": "function"
    },
    {
      "inputs": [
        {
          "internalType": "address",
          "name": "newOwner",
          "type": "address"
        }
      ],
      "name": "transferOwnership",
      "outputs": [],
      "stateMutability": "nonpayable",
      "type": "function"
    },
    {
      "inputs": [
        {
          "internalType": "address",
          "name": "",
          "type": "address"
        },
        {
          "internalType": "address",
          "name": "",
          "type": "address"
        }
      ],
      "name": "userDepositedTokensIndex",
      "outputs": [
        {
          "internalType": "uint256",
          "name": "",
          "type": "uint256"
        }
      ],
      "stateMutability": "view",
      "type": "function"
    },
    {
      "inputs": [
        {
          "internalType": "address",
          "name": "token",
          "type": "address"
        },
        {
          "internalType": "uint256",
          "name": "feeAmountBps",
          "type": "uint256"
        }
      ],
      "name": "voteForLPFee",
      "outputs": [],
      "stateMutability": "nonpayable",
      "type": "function"
    },
    {
      "inputs": [
        {
          "internalType": "address",
          "name": "token",
          "type": "address"
        }
      ],
      "name": "withdraw",
      "outputs": [],
      "stateMutability": "nonpayable",
      "type": "function"
    },
    {
      "inputs": [
        {
          "internalType": "address",
          "name": "token",
          "type": "address"
        }
      ],
      "name": "withdrawFees",
      "outputs": [],
      "stateMutability": "nonpayable",
      "type": "function"
    },
    {
      "inputs": [
        {
          "internalType": "address",
          "name": "token",
          "type": "address"
        }
      ],
      "name": "withdrawManagementFees",
      "outputs": [],
      "stateMutability": "nonpayable",
      "type": "function"
    }
  ],
  "bytecode": "0x60808060405234601557613737908161001b8239f35b600080fdfe6080604052600436101561001257600080fd5b60003560e01c806301e055a114612a02578063071a8ea8146129aa57806310073f7c1461294c578063164e68de1461268257806320c726c81461262a57806323df4081146125e957806328e37bc8146125af5780632a1a18cc146125755780633e6111a8146124f557806346c58227146124a957806347e7ef2414611fb557806351cff8d914611b7e5780635e71430f14611ae657806362c5a5e2146108895780636a08f22914611aca5780636dfc692b1461131f578063715018a6146112795780637df446471461122157806388c47f68146112045780638aca4260146111e75780638da5cb5b146111a15780638f601f661461114957806396fb004514610f66578063a3714c2d14610f48578063acbf750314610d86578063adf51de1146109ba578063b423b79f1461088e578063b9bce21614610889578063bf6b874e1461084f578063c56326de14610815578063ce57fead146107db578063dc0ab91414610793578063f19451d814610774578063f2fde38b14610749578063f46db04d1461051b578063f55b0015146104d3578063fe0f38dc146104b7578063fe4b84df146102705763fe56e232146101c957600080fd5b3461026b57602036600319011261026b576004356101e561345a565b6101f481116102275760407ffac39c9265fbab8fd6b4293b3f584cb3b1c0c39fb315acbcd4d1bef067c340cd91600854908060085582519182526020820152a1005b606460405162461bcd60e51b815260206004820152601060248201527f466565206f7574206f662072616e6765000000000000000000000000000000006044820152fd5b600080fd5b3461026b57602036600319011261026b576004357ff0c57e16840df040f15088dc2f81fe391c3923bec73e23a9662efc9c229c6a00549060ff8260401c16159167ffffffffffffffff8116801590816104af575b60011490816104a5575b15908161049c575b506104725767ffffffffffffffff1981166001177ff0c57e16840df040f15088dc2f81fe391c3923bec73e23a9662efc9c229c6a005582610433575b506101f481116103ef576103246136a8565b61032c6136a8565b610335336130bf565b61033d6136a8565b6103456136a8565b60017f9b779b17422d0df92223018b32b4d1fa46e071723d6817e2486d003becc55f005560085561037257005b68ff0000000000000000197ff0c57e16840df040f15088dc2f81fe391c3923bec73e23a9662efc9c229c6a0054167ff0c57e16840df040f15088dc2f81fe391c3923bec73e23a9662efc9c229c6a00557fc7f505b2f371ae2175ee4913f4499e1f2633a7b5936321eed1cdaeb6115181d2602060405160018152a1005b606460405162461bcd60e51b815260206004820152601560248201527f4d676d7420666565206f7574206f662072616e676500000000000000000000006044820152fd5b68ffffffffffffffffff191668010000000000000001177ff0c57e16840df040f15088dc2f81fe391c3923bec73e23a9662efc9c229c6a005582610312565b7ff92ee8a90000000000000000000000000000000000000000000000000000000060005260046000fd5b905015846102d6565b303b1591506102ce565b8491506102c4565b3461026b57600036600319011261026b57602060405160018152f35b3461026b57604036600319011261026b576001600160a01b036104f4612a53565b16600052600360205260406000206024356000526020526020604060002054604051908152f35b3461026b57604036600319011261026b57610534612a53565b6024356001600160a01b0382169161054d831515612b96565b60648211610705576000838152602081905260408120546106f4575060015b82146106b0578260005260066020526040600020541561066c5781610590916134bb565b1561060257600a43018043116105ec577fea5c0b7c4ee534d8b0fb9fbbc5137f28be3543501219bfe9fd837a1ba79c1d4791604091846000526003602052826000208260005260205280836000205582519182526020820152a2005b634e487b7160e01b600052601160045260246000fd5b608460405162461bcd60e51b815260206004820152602360248201527f496e73756666696369656e7420737570706f727420666f72206665652063686160448201527f6e676500000000000000000000000000000000000000000000000000000000006064820152fd5b606460405162461bcd60e51b815260206004820152601160248201527f4e6f2073686172657320696e20706f6f6c0000000000000000000000000000006044820152fd5b606460405162461bcd60e51b815260206004820152600f60248201527f46656520616c72656164792073657400000000000000000000000000000000006044820152fd5b80846040925280602052205461056c565b606460405162461bcd60e51b815260206004820152600c60248201527f46656520746f6f206869676800000000000000000000000000000000000000006044820152fd5b3461026b57602036600319011261026b57610772610765612a53565b61076d61345a565b6130bf565b005b3461026b57600036600319011261026b5760206040516305f5e1008152f35b3461026b57604036600319011261026b576001600160a01b036107b4612a53565b16600052600160205260406000206024356000526020526020604060002054604051908152f35b3461026b57602036600319011261026b576001600160a01b036107fc612a53565b1660005260006020526020604060002054604051908152f35b3461026b57602036600319011261026b576001600160a01b03610836612a53565b1660005260056020526020604060002054604051908152f35b3461026b57602036600319011261026b576001600160a01b03610870612a53565b1660005260066020526020604060002054604051908152f35b612b1b565b3461026b57602036600319011261026b576001600160a01b036108af612a53565b6108b761345a565b6108bf61318b565b166108cb811515612b96565b8060005260096020526040600020548015610976578161095092600052600960205260006040812055807f583d1744b1f2b01833f7f10ff38436dd7a76ff50695a487bfb9f0f3d07749b496020604051858152a26001600160a01b037f9016d09d72d40fdae2fd8ceac6b6234c7706214fd39c1cd1e609a0528c1993005416906132c6565b60017f9b779b17422d0df92223018b32b4d1fa46e071723d6817e2486d003becc55f0055005b606460405162461bcd60e51b815260206004820152600760248201527f4e6f2066656573000000000000000000000000000000000000000000000000006044820152fd5b3461026b57608036600319011261026b576109d3612a53565b6024356109de612a7f565b6064359267ffffffffffffffff841161026b57610a076001600160a01b03943690600401612b68565b949091610a1261318b565b1693610a1f851515612b96565b6001600160a01b03831692610a35841515612dd6565b610a40851515612eda565b856000526005602052610a5a604060002054861115612f25565b610a6b610a6682613572565b612e21565b600086815260208190526040812054610d7457506001915b612710610a908488612ca2565b0493610a9c8488612ca2565b956305f5e100610aaf6008548099612ca2565b0494610abb8688612dc9565b97881580610d66575b610ce6575b50509060249291610ada888a612dc9565b9160208b604051968780926370a0823160e01b82523060048301525afa948515610c6e578a918c91600097610ca7575b5090610b55600092610b21856020999a9b856132c6565b60405198899788968795631dd0e4ab60e31b8752600487015260248601526044850152608060648501526084840191613053565b03925af18015610c6e57610c7a575b50604051906370a0823160e01b82523060048301526020826024818a5afa908115610c6e578592600092610c35575b50610ba892610ba191612dc9565b1115613074565b846000526009602052610bc16040600020918254612dc9565b9055836000526005602052610bdc6040600020918254612dc9565b905560405191825260208201527f0d7d75e01ab95780d3cd1c8ec0dd6c2ce19e3a20427eec8bf53283b6fb8e95f060403392a360017f9b779b17422d0df92223018b32b4d1fa46e071723d6817e2486d003becc55f0055005b925090506020823d602011610c66575b81610c5260209383612c2c565b8101031261026b5790518491610ba8610b93565b3d9150610c45565b6040513d6000823e3d90fd5b610c9b9060203d602011610ca0575b610c938183612c2c565b810190612f84565b610b64565b503d610c89565b9596509150506020843d602011610cde575b81610cc660209383612c2c565b8101031261026b579251939289908b90610b55610b0a565b3d9150610cb9565b9295509295509550610d05612710610cfe8385612ca2565b0483612dc9565b908115610d565715610d4757818004600114821517156105ec57610d2891612c82565b928360010390600182116105ec57602491935b6001969091928a610ac9565b50506024600193600093610d3b565b5050506024600193600093610d3b565b506305f5e1008a1015610ac4565b80876040925280602052205491610a83565b3461026b57604036600319011261026b57610d9f612a53565b6001600160a01b036024359116610db7811515612b96565b60648211610f045780600052600760205260406000206001600160a01b0333166000526020526040600020548015610ec05781600052600260205260406000206001600160a01b03331660005260205260406000205480610e93575b5081600052600260205260406000206001600160a01b033316600052602052826040600020558160005260016020526040600020836000526020526040600020610e5e828254612dc9565b905560405192835260208301527ff48a58e9d5afdf15234a1ebb420b39e7a14527250c15041b1cd8ec84c70b8ef060403393a3005b8260005260016020526040600020906000526020526040600020610eb8828254612c75565b905583610e13565b606460405162461bcd60e51b815260206004820152601160248201527f4e6f2073686172657320746f20766f74650000000000000000000000000000006044820152fd5b606460405162461bcd60e51b815260206004820152601360248201527f46656520616d6f756e7420746f6f2068696768000000000000000000000000006044820152fd5b3461026b57600036600319011261026b576020600854604051908152f35b3461026b57604036600319011261026b57610f7f612a53565b6024356001600160a01b03821691610f98831515612b96565b82600052600360205260406000208260005260205260406000205480156111055743106110c15781610fc9916134bb565b156110575760407fb057abc153681100ec57c126c9edb0424f84eea13220b09f71ac8f09eb192b2a91836000526003602052816000208160005260205260008281205583600052600060205281600020541560009060001461104657506001905b84600052600060205280836000205582519182526020820152a2005b80858492528060205220549061102a565b608460405162461bcd60e51b815260206004820152602960248201527f50726f706f73616c206e6f206c6f6e676572206861732073756666696369656e60448201527f7420737570706f727400000000000000000000000000000000000000000000006064820152fd5b606460405162461bcd60e51b815260206004820152601660248201527f50726f706f73616c2064656c6179206e6f74206d6574000000000000000000006044820152fd5b606460405162461bcd60e51b815260206004820152601260248201527f4e6f2070726f706f73616c2065786973747300000000000000000000000000006044820152fd5b3461026b57604036600319011261026b57611162612a53565b6001600160a01b03611172612a69565b911660005260046020526001600160a01b03604060002091166000526020526020604060002054604051908152f35b3461026b57600036600319011261026b5760206001600160a01b037f9016d09d72d40fdae2fd8ceac6b6234c7706214fd39c1cd1e609a0528c1993005416604051908152f35b3461026b57600036600319011261026b5760206040516101f48152f35b3461026b57600036600319011261026b5760206040516103e88152f35b3461026b57604036600319011261026b5761123a612a53565b6001600160a01b0361124a612a69565b911660005260076020526001600160a01b03604060002091166000526020526020604060002054604051908152f35b3461026b57600036600319011261026b5761129261345a565b60006001600160a01b037f9016d09d72d40fdae2fd8ceac6b6234c7706214fd39c1cd1e609a0528c1993005473ffffffffffffffffffffffffffffffffffffffff1981167f9016d09d72d40fdae2fd8ceac6b6234c7706214fd39c1cd1e609a0528c19930055167f8be0079c531659141344cd1fd0a4f28419497f9722a3daafe3b4186f6b6457e08280a3005b3461026b57608036600319011261026b5760043567ffffffffffffffff811161026b57611350903690600401612b37565b9060243567ffffffffffffffff811161026b57611371903690600401612b37565b929061137b612a7f565b9360643567ffffffffffffffff811161026b5761139c903690600401612b68565b95906113a661318b565b6001600160a01b038216906113bc821515612dd6565b8515611a8657838603611a4257601486116119fe5790868685936113e2610a6687613318565b6113eb82612e84565b9a6113f583612e84565b896113ff85612e84565b9860005b868110611707575050611448959360009361146c602099979461145a61147e956040519d8e9c8d9b8c9a63393cbfeb60e21b8c52608060048d015260848c0191612f9c565b8981036003190160248b015291612fe2565b8681036003190160448801529061301f565b84810360031901606486015291613053565b03925af18015610c6e576116ea575b5060005b84811061152157867fa383ec6e920e9fac635159493ce80b1eff69de150ccb107d3965681c75a6d85f87876114f86114e989896114db604051968796606088526060880191612f9c565b918583036020870152612fe2565b8281036040840152339561301f565b0390a260017f9b779b17422d0df92223018b32b4d1fa46e071723d6817e2486d003becc55f0055005b61153461152f828789612eb6565b612ec6565b90611540818587612eb6565b356001600160a01b03611553838b612f70565b519316926040516370a0823160e01b8152306004820152602081602481885afa8015610c6e576000906116b4575b61159a9150610ba183611594878a612f70565b51612dc9565b6000848152602081905260408120546116a3575060015b6127106115be8285612ca2565b04928160016115cd8686612c75565b9414918261168b575b505061161d575b50926001938160005260096020526115fb6040600020918254612dc9565b905560005260056020526116156040600020918254612dc9565b905501611491565b915050600854611633612710610cfe8385612ca2565b90811561167c571561166e57818004600114821517156105ec5761165691612c82565b8060010392600184116105ec576001935b90936115dd565b505060019182906000611667565b50505060019182906000611667565b61271092509061169a91612ca2565b0415818d6115d6565b8085604092528060205220546115b1565b6020823d82116116e2575b816116cc60209383612c2c565b810103126116df575061159a9051611581565b80fd5b3d91506116bf565b6117029060203d602011610ca057610c938183612c2c565b61148d565b939684919598995061152f92509561171f9396612eb6565b906001600160a01b03611733828b8d612eb6565b359216611741811515612b96565b61174c831515612eda565b806000526005602052611766604060002054841115612f25565b600182018083116105ec575b8d8d808310611985575050508060005260006020528d6040600020541560009060001461197357506001905b6127106117ab8387612ca2565b04916117d46117ba8288612ca2565b936305f5e1006117cd6008548097612ca2565b0490612dc9565b92831580611965575b6118d2575b505081602495602094936117f9876117ff95612f70565b52612dc9565b6118098488612f70565b52604051938480926370a0823160e01b82523060048301525afa8015610c6e57898c8e8d938c8897600092611886575b50936001600160a01b0361186861152f8960019b9761186f978297611862846118769e9d612f70565b52612eb6565b1694612eb6565b35916132c6565b0192899289899796938d96611403565b9697505093505050506020823d82116118ca575b816118a760209383612c2c565b810103126116df5750518291908a908a908d908f908c6001600160a01b03611839565b3d915061189a565b919092506118ed6127106118e68486612ca2565b0484612dc9565b918215611950571561193c5750818004600114821517156105ec5761191191612c82565b60010390600182116105ec576117ff8f6024958591602095505b6117f96001959650509250956117e2565b60209392506117ff9150602495859161192b565b5060209392506117ff9150602495859161192b565b506305f5e1008710156117dd565b8083604092528060205220549061179e565b6001600160a01b036119aa61152f85846119a461152f8b87988a612eb6565b96612eb6565b169116146119ba57600101611772565b606460405162461bcd60e51b815260206004820152600f60248201527f4475706c696361746520746f6b656e00000000000000000000000000000000006044820152fd5b606460405162461bcd60e51b815260206004820152600f60248201527f546f6f206d616e7920746f6b656e7300000000000000000000000000000000006044820152fd5b606460405162461bcd60e51b815260206004820152601660248201527f417272617973206c656e677468206d69736d61746368000000000000000000006044820152fd5b606460405162461bcd60e51b815260206004820152601360248201527f4e6f20746f6b656e7320737065636966696564000000000000000000000000006044820152fd5b3461026b57600036600319011261026b576020604051600a8152f35b3461026b57600036600319011261026b57604051806020600a54918281520190600a6000527fc65a7bb8d6351c1cf70c95a316cc6a92839c986682d98bc35f958f4883f9d2a89060005b818110611b5f57611b5b85611b4781870382612c2c565b604051918291602083526020830190612ade565b0390f35b82546001600160a01b0316845260209093019260019283019201611b30565b3461026b57602036600319011261026b57611b97612a53565b611b9f61318b565b6001600160a01b038116611bb4811515612b96565b80600052600760205260406000206001600160a01b033316600052602052611be26040600020541515612be1565b6040516346c5822760e01b81526001600160a01b03831660048201523360248201529060a082604481305afa918215610c6e5760009283918491611f7b575b506305f5e1008410611f115760008381526007602090815260408083203380855290835281842080548886526004855283862092865291845282852085905584905586845260069092529091208054919691611c7e908890612c75565b90558360005260056020526040600020611c99868254612c75565b905533600052600d60205260406000208460005260205260406000205480611e26575b5083600052600b60205260406000205480611d1d575b5090611ce5610950968594933390613204565b60405191825260208201527ff341246adaac6f497bc2a656f546ab9e182111d630394f0c57c710a59a2cb56760403392a333906132c6565b8460005260066020526103e860406000205411611cd257600a549193929160001981019081116105ec5780821115611dc0575b5050600a548015611daa57610950968594611ce59260001901611d8c611d7782600a612ac6565b6001600160a01b0382549160031b1b19169055565b600a5585600052600b60205260006040812055929394509650611cd2565b634e487b7160e01b600052603160045260246000fd5b611dd16001600160a01b0391612a95565b90549060031b1c1660001982018281116105ec5781611df2611e1192612a95565b9091906001600160a01b038084549260031b9316831b921b1916179055565b600052600b6020526040600020558680611d50565b33600052600c60205260406000205460001981019081116105ec5780821115611e97575b505033600052600c602052604060002080548015611daa576000190190611e74611d778383612ac6565b5533600052600d6020526040600020846000526020526000604081205586611cbc565b611eb66001600160a01b039133600052600c6020526040600020612ac6565b90549060031b1c1633600052600c602052604060002060001983018381116105ec57611df28391611ee693612ac6565b33600052600d6020526001600160a01b03604060002091166000526020526040600020558680611e4a565b608460405162461bcd60e51b815260206004820152602d60248201527f5769746864726177616c20746f6f20736d616c6c20616674657220454e54525960448201527f5f455849545f46454520666565000000000000000000000000000000000000006064820152fd5b915050611fa191925060a03d60a011611fae575b611f998183612c2c565b810190612c4e565b5091509291929085611c21565b503d611f8f565b3461026b57604036600319011261026b57611fce612a53565b602435611fd961318b565b6001600160a01b038216611fee811515612b96565b6305f5e1008210612465576063198201928284116105ec5783156123fb578160005260066020526040600020541560001461230357839082600052600760205260406000206001600160a01b03807f9016d09d72d40fdae2fd8ceac6b6234c7706214fd39c1cd1e609a0528c1993005416166000526020526103e86040600020558260005260066020526103e86040600020558260005260056020526103e86040600020555b82600052600460205260406000206001600160a01b03331660005260205260406000206120c2868254612dc9565b905582600052600760205260406000206001600160a01b03331660005260205260406000206120f2838254612dc9565b9055826000526006602052604060002061210d838254612dc9565b90558260005260056020526040600020612128858254612dc9565b905582600052600b602052604060002054156122c2575b33600052600d6020526040600020836000526020526040600020541561223f575b5061095093829182600052600260205260406000206001600160a01b03331660005260205260406000205480612212575b5060405191825260208201527fdcbc1c05240f31ff3ad067ef1ee35ce4997762752e3a095284754544f4c709d760403392a3604051917f23b872dd00000000000000000000000000000000000000000000000000000000602084015233602484015230604484015260648301526064825261220d608483612c2c565b613637565b8360005260016020526040600020906000526020526040600020612237828254612dc9565b905586612191565b9333600052600c6020526040600020918254680100000000000000008110156122ac5761095096611df2828796600161227a95018155612ac6565b33600052600c60205260406000205433600052600d602052604060002084600052602052604060002055915093612160565b634e487b7160e01b600052604160045260246000fd5b600a54680100000000000000008110156122ac5781611df28260016122ec9401600a55600a612ac6565b600a5483600052600b60205260406000205561213f565b816000526005602052604060002054156123b75781600052600660205261234761233260406000205486612ca2565b83600052600560205260406000205490612c82565b908161209457608460405162461bcd60e51b815260206004820152602760248201527f4465706f73697420746f6f20736d616c6c20666f722063757272656e7420706f60448201527f6f6c2073697a65000000000000000000000000000000000000000000000000006064820152fd5b606460405162461bcd60e51b815260206004820152601760248201527f496e76616c6964206c69717569646974792073746174650000000000000000006044820152fd5b608460405162461bcd60e51b815260206004820152602960248201527f416d6f756e7420746f6f20736d616c6c20616674657220454e5452595f45584960448201527f545f4645452066656500000000000000000000000000000000000000000000006064820152fd5b606460405162461bcd60e51b815260206004820152601160248201527f4465706f73697420746f6f20736d616c6c0000000000000000000000000000006044820152fd5b3461026b57604036600319011261026b5760a06124d56124c7612a53565b6124cf612a69565b90612cb5565b926040929192519485526020850152604084015260608301526080820152f35b3461026b57602036600319011261026b576001600160a01b03612516612a53565b16600052600c602052604060002060405190816020825491828152019160005260206000209060005b81811061255657611b5b85611b4781870382612c2c565b82546001600160a01b031684526020909301926001928301920161253f565b3461026b57602036600319011261026b576001600160a01b03612596612a53565b16600052600b6020526020604060002054604051908152f35b3461026b57602036600319011261026b576001600160a01b036125d0612a53565b1660005260096020526020604060002054604051908152f35b3461026b57602036600319011261026b57600435600a5481101561026b576001600160a01b0361261a602092612a95565b90549060031b1c16604051908152f35b3461026b57604036600319011261026b57612643612a53565b6001600160a01b03612653612a69565b9116600052600d6020526001600160a01b03604060002091166000526020526020604060002054604051908152f35b3461026b57602036600319011261026b5761269b612a53565b6126a361318b565b6001600160a01b038116906126b9821515612b96565b81600052600760205260406000206001600160a01b0333166000526020526126e76040600020541515612be1565b6040516346c5822760e01b81526001600160a01b03821660048201523360248201529160a083604481305afa928315610c6e57600093600091600091612922575b5081156128de578082111561289a5761274091612c75565b91620f424083106128565781600052600760205260406000206001600160a01b03331660005260205260406000205490670de0b6b3a76400008402848104670de0b6b3a764000014851517156105ec576127b3612822936127ad61095098670de0b6b3a764000094612c82565b90612ca2565b049083600052600760205260406000206001600160a01b03331660005260205260406000206127e3838254612c75565b905583600052600660205260406000206127fe838254612c75565b90558360005260056020526040600020612819868254612c75565b90553390613204565b806040518381527f5e110f8bc8a20b65dcc87f224bdf1cc039346e267118bae2739847f07321ffa860203392a333906132c6565b606460405162461bcd60e51b815260206004820152601860248201527f466565207769746864726177616c20746f6f20736d616c6c00000000000000006044820152fd5b606460405162461bcd60e51b815260206004820152601d60248201527f4665657320746f6f20736d616c6c2061667465722065786974206665650000006044820152fd5b606460405162461bcd60e51b815260206004820152601360248201527f4e6f206665657320746f207769746864726177000000000000000000000000006044820152fd5b91505061293f91935060a03d60a011611fae57611f998183612c2c565b9295935091905085612728565b3461026b57602036600319011261026b576001600160a01b0361296d612a53565b168060005260006020526040600020541590600091600014612998575050602060015b604051908152f35b81604091602093528083522054612990565b3461026b57604036600319011261026b576129c3612a53565b6001600160a01b036129d3612a69565b911660005260026020526001600160a01b03604060002091166000526020526020604060002054604051908152f35b3461026b57604036600319011261026b57612a1b612a53565b6001600160a01b036024359116600052600c602052604060002090815481101561026b5761261a6001600160a01b0391602093612ac6565b600435906001600160a01b038216820361026b57565b602435906001600160a01b038216820361026b57565b604435906001600160a01b038216820361026b57565b600a54811015612ab057600a60005260206000200190600090565b634e487b7160e01b600052603260045260246000fd5b8054821015612ab05760005260206000200190600090565b906020808351928381520192019060005b818110612afc5750505090565b82516001600160a01b0316845260209384019390920191600101612aef565b3461026b57600036600319011261026b57602060405160648152f35b9181601f8401121561026b5782359167ffffffffffffffff831161026b576020808501948460051b01011161026b57565b9181601f8401121561026b5782359167ffffffffffffffff831161026b576020838186019501011161026b57565b15612b9d57565b606460405162461bcd60e51b815260206004820152600d60248201527f496e76616c696420746f6b656e000000000000000000000000000000000000006044820152fd5b15612be857565b606460405162461bcd60e51b815260206004820152601360248201527f4e6f7468696e6720746f207769746864726177000000000000000000000000006044820152fd5b90601f8019910116810190811067ffffffffffffffff8211176122ac57604052565b908160a091031261026b578051916020820151916040810151916080606083015192015190565b919082039182116105ec57565b8115612c8c570490565b634e487b7160e01b600052601260045260246000fd5b818102929181159184041417156105ec57565b6001600160a01b0390929192169182600052600760205260406000206001600160a01b03821660005260205260406000205480158015612db3575b612da357612d10612d259185600052600560205260406000205490612ca2565b84600052600660205260406000205490612c82565b918360005260056020526040600020548311612d8c575b60649160631984018481116105ec579460005260046020526001600160a01b036040600020911660005260205260406000205491828411600014612d8757612d848385612c75565b91565b600091565b915082600052600560205260406000205491612d3c565b5060009250829182915081908190565b5083600052600660205260406000205415612cf0565b919082018092116105ec57565b15612ddd57565b606460405162461bcd60e51b815260206004820152601060248201527f496e76616c6964207265636569766572000000000000000000000000000000006044820152fd5b15612e2857565b606460405162461bcd60e51b815260206004820152601a60248201527f496e76616c696420726563656976657220696e746572666163650000000000006044820152fd5b67ffffffffffffffff81116122ac5760051b60200190565b90612e8e82612e6c565b612e9b6040519182612c2c565b8281528092612eac601f1991612e6c565b0190602036910137565b9190811015612ab05760051b0190565b356001600160a01b038116810361026b5790565b15612ee157565b606460405162461bcd60e51b815260206004820152600e60248201527f496e76616c696420616d6f756e740000000000000000000000000000000000006044820152fd5b15612f2c57565b606460405162461bcd60e51b815260206004820152601460248201527f4e6f7420656e6f756768206c69717569646974790000000000000000000000006044820152fd5b8051821015612ab05760209160051b010190565b9081602091031261026b5751801515810361026b5790565b916020908281520191906000905b808210612fb75750505090565b9091928335906001600160a01b03821680920361026b57602081600193829352019401920190612faa565b90918281527f07ffffffffffffffffffffffffffffffffffffffffffffffffffffffffffffff831161026b5760209260051b809284830137010190565b906020808351928381520192019060005b81811061303d5750505090565b8251845260209384019390920191600101613030565b908060209392818452848401376000828201840152601f01601f1916010190565b1561307b57565b606460405162461bcd60e51b815260206004820152601560248201527f466c617368206c6f616e206e6f742072657061696400000000000000000000006044820152fd5b6001600160a01b0316801561315c576001600160a01b037f9016d09d72d40fdae2fd8ceac6b6234c7706214fd39c1cd1e609a0528c199300548273ffffffffffffffffffffffffffffffffffffffff198216177f9016d09d72d40fdae2fd8ceac6b6234c7706214fd39c1cd1e609a0528c19930055167f8be0079c531659141344cd1fd0a4f28419497f9722a3daafe3b4186f6b6457e0600080a3565b7f1e4fbdf700000000000000000000000000000000000000000000000000000000600052600060045260246000fd5b60027f9b779b17422d0df92223018b32b4d1fa46e071723d6817e2486d003becc55f0054146131da5760027f9b779b17422d0df92223018b32b4d1fa46e071723d6817e2486d003becc55f0055565b7f3ee5aeb50000000000000000000000000000000000000000000000000000000060005260046000fd5b90916001600160a01b0360009216918281526002602052604081206001600160a01b038516825260205260408120549081613241575b5050505050565b508260005260016020526040600020906000526020526132676040600020918254612c75565b905580600052600760205260406000206001600160a01b0383166000526020526040600020541561329b575b80808061323a565b60005260026020526001600160a01b0360406000209116600052602052600060408120553880613293565b613316926001600160a01b03604051937fa9059cbb00000000000000000000000000000000000000000000000000000000602086015216602484015260448301526044825261220d606483612c2c565b565b6001600160a01b03166040516301ffc9a760e01b815263393cbfeb60e21b6004820152602081602481855afa60009181613439575b5061343457506020806133c7604051936133678386612c2c565b6000855260003681376040519461337e8487612c2c565b6000865260003681376000846133eb60405161339a8382612c2c565b838152833681376133d96040519a8b98899763393cbfeb60e21b8952608060048a01526084890190612ade565b8781036003190160248901529061301f565b8581036003190160448701529061301f565b828482039160031983016064870152520192617530f19182613418575b505061341357600090565b600190565b8161342e92903d10610ca057610c938183612c2c565b38613408565b905090565b61345391925060203d602011610ca057610c938183612c2c565b903861334d565b6001600160a01b037f9016d09d72d40fdae2fd8ceac6b6234c7706214fd39c1cd1e609a0528c1993005416330361348d57565b7f118cdaa7000000000000000000000000000000000000000000000000000000006000523360045260246000fd5b6001600160a01b031660008181526020819052604081205461356057506001915b81600052600660205260406000205492831561355757600092835260016020908152604080852092855291905280832054918352909120549061271080820291808304909114901517156105ec578261353491612c82565b9161271082029180830461271014901517156105ec5761355391612c82565b1190565b50505050600090565b808260409252806020522054916134dc565b6001600160a01b03166040516301ffc9a760e01b8152631dd0e4ab60e31b6004820152602081602481855afa60009181613616575b506134345750602060009160a460405180948193631dd0e4ab60e31b835281600484015281602484015281604484015260806064840152816084840152617530f190816135f9575b5061341357600090565b6136119060203d602011610ca057610c938183612c2c565b6135ef565b61363091925060203d602011610ca057610c938183612c2c565b90386135a7565b906000602091828151910182855af115610c6e576000513d61369f57506001600160a01b0381163b155b6136685750565b6001600160a01b03907f5274afe7000000000000000000000000000000000000000000000000000000006000521660045260246000fd5b60011415613661565b60ff7ff0c57e16840df040f15088dc2f81fe391c3923bec73e23a9662efc9c229c6a005460401c16156136d757565b7fd7e6bcf80000000000000000000000000000000000000000000000000000000060005260046000fdfea26469706673582212209f1aefe914bdca5d8af9bd5ff0b8300346fbc29858667e734e301ed02b5757eb64736f6c634300081c0033",
  "linkReferences": {},
  "deployedLinkReferences": {}
}