{
  "_format": "hh-sol-artifact-1",
  "contractName": "ERC20FlashLender",
  "sourceName": "contracts/ERC20FlashLender.sol",
  "abi": [
    {
      "inputs": [],
      "name": "InvalidInitialization",
      "type": "error"
    },
    {
      "inputs": [],
      "name": "NotInitializing",
      "type": "error"
    },
    {
      "inputs": [
        {
          "internalType": "address",
          "name": "owner",
          "type": "address"
        }
      ],
      "name": "OwnableInvalidOwner",
      "type": "error"
    },
    {
      "inputs": [
        {
          "internalType": "address",
          "name": "account",
          "type": "address"
        }
      ],
      "name": "OwnableUnauthorizedAccount",
      "type": "error"
    },
    {
      "inputs": [],
      "name": "ReentrancyGuardReentrantCall",
      "type": "error"
    },
    {
      "inputs": [
        {
          "internalType": "address",
          "name": "token",
          "type": "address"
        }
      ],
      "name": "SafeERC20FailedOperation",
      "type": "error"
    },
    {
      "anonymous": false,
      "inputs": [
        {
          "indexed": true,
          "internalType": "address",
          "name": "user",
          "type": "address"
        },
        {
          "indexed": true,
          "internalType": "address",
          "name": "token",
          "type": "address"
        },
        {
          "indexed": false,
          "internalType": "uint256",
          "name": "amount",
          "type": "uint256"
        },
        {
          "indexed": false,
          "internalType": "uint256",
          "name": "shares",
          "type": "uint256"
        }
      ],
      "name": "Deposit",
      "type": "event"
    },
    {
      "anonymous": false,
      "inputs": [
        {
          "indexed": true,
          "internalType": "address",
          "name": "user",
          "type": "address"
        },
        {
          "indexed": true,
          "internalType": "address",
          "name": "token",
          "type": "address"
        },
        {
          "indexed": false,
          "internalType": "uint256",
          "name": "fees",
          "type": "uint256"
        }
      ],
      "name": "FeesWithdrawn",
      "type": "event"
    },
    {
      "anonymous": false,
      "inputs": [
        {
          "indexed": true,
          "internalType": "address",
          "name": "borrower",
          "type": "address"
        },
        {
          "indexed": true,
          "internalType": "address",
          "name": "token",
          "type": "address"
        },
        {
          "indexed": false,
          "internalType": "uint256",
          "name": "amount",
          "type": "uint256"
        },
        {
          "indexed": false,
          "internalType": "uint256",
          "name": "fee",
          "type": "uint256"
        }
      ],
      "name": "FlashLoan",
      "type": "event"
    },
    {
      "anonymous": false,
      "inputs": [
        {
          "indexed": false,
          "internalType": "uint64",
          "name": "version",
          "type": "uint64"
        }
      ],
      "name": "Initialized",
      "type": "event"
    },
    {
      "anonymous": false,
      "inputs": [
        {
          "indexed": true,
          "internalType": "address",
          "name": "token",
          "type": "address"
        },
        {
          "indexed": false,
          "internalType": "uint256",
          "name": "oldFee",
          "type": "uint256"
        },
        {
          "indexed": false,
          "internalType": "uint256",
          "name": "newFee",
          "type": "uint256"
        }
      ],
      "name": "LPFeeChangeExecuted",
      "type": "event"
    },
    {
      "anonymous": false,
      "inputs": [
        {
          "indexed": true,
          "internalType": "address",
          "name": "token",
          "type": "address"
        },
        {
          "indexed": false,
          "internalType": "uint256",
          "name": "newFeeBps",
          "type": "uint256"
        },
        {
          "indexed": false,
          "internalType": "uint256",
          "name": "executionBlock",
          "type": "uint256"
        }
      ],
      "name": "LPFeeChangeProposed",
      "type": "event"
    },
    {
      "anonymous": false,
      "inputs": [
        {
          "indexed": true,
          "internalType": "address",
          "name": "token",
          "type": "address"
        },
        {
          "indexed": true,
          "internalType": "address",
          "name": "voter",
          "type": "address"
        },
        {
          "indexed": false,
          "internalType": "uint256",
          "name": "feeAmount",
          "type": "uint256"
        },
        {
          "indexed": false,
          "internalType": "uint256",
          "name": "voterShares",
          "type": "uint256"
        }
      ],
      "name": "LPFeeVoteCast",
      "type": "event"
    },
    {
      "anonymous": false,
      "inputs": [
        {
          "indexed": false,
          "internalType": "uint256",
          "name": "oldFee",
          "type": "uint256"
        },
        {
          "indexed": false,
          "internalType": "uint256",
          "name": "newFee",
          "type": "uint256"
        }
      ],
      "name": "ManagementFeeChanged",
      "type": "event"
    },
    {
      "anonymous": false,
      "inputs": [
        {
          "indexed": true,
          "internalType": "address",
          "name": "token",
          "type": "address"
        },
        {
          "indexed": false,
          "internalType": "uint256",
          "name": "amount",
          "type": "uint256"
        }
      ],
      "name": "ManagementFeeWithdrawn",
      "type": "event"
    },
    {
      "anonymous": false,
      "inputs": [
        {
          "indexed": true,
          "internalType": "address",
          "name": "borrower",
          "type": "address"
        },
        {
          "indexed": false,
          "internalType": "address[]",
          "name": "tokens",
          "type": "address[]"
        },
        {
          "indexed": false,
          "internalType": "uint256[]",
          "name": "amounts",
          "type": "uint256[]"
        },
        {
          "indexed": false,
          "internalType": "uint256[]",
          "name": "fees",
          "type": "uint256[]"
        }
      ],
      "name": "MultiFlashLoan",
      "type": "event"
    },
    {
      "anonymous": false,
      "inputs": [
        {
          "indexed": true,
          "internalType": "address",
          "name": "previousOwner",
          "type": "address"
        },
        {
          "indexed": true,
          "internalType": "address",
          "name": "newOwner",
          "type": "address"
        }
      ],
      "name": "OwnershipTransferred",
      "type": "event"
    },
    {
      "anonymous": false,
      "inputs": [
        {
          "indexed": true,
          "internalType": "address",
          "name": "user",
          "type": "address"
        },
        {
          "indexed": true,
          "internalType": "address",
          "name": "token",
          "type": "address"
        },
        {
          "indexed": false,
          "internalType": "uint256",
          "name": "principal",
          "type": "uint256"
        },
        {
          "indexed": false,
          "internalType": "uint256",
          "name": "fees",
          "type": "uint256"
        }
      ],
      "name": "Withdraw",
      "type": "event"
    },
    {
      "inputs": [],
      "name": "DEFAULT_LP_FEE_BPS",
      "outputs": [
        {
          "internalType": "uint256",
          "name": "",
          "type": "uint256"
        }
      ],
      "stateMutability": "view",
      "type": "function"
    },
    {
      "inputs": [],
      "name": "ENTRY_EXIT_FEE",
      "outputs": [
        {
          "internalType": "uint256",
          "name": "",
          "type": "uint256"
        }
      ],
      "stateMutability": "view",
      "type": "function"
    },
    {
      "inputs": [],
      "name": "MAX_LP_FEE_BPS",
      "outputs": [
        {
          "internalType": "uint256",
          "name": "",
          "type": "uint256"
        }
      ],
      "stateMutability": "view",
      "type": "function"
    },
    {
      "inputs": [],
      "name": "MAX_MANAGEMENT_FEE_PERCENTAGE",
      "outputs": [
        {
          "internalType": "uint256",
          "name": "",
          "type": "uint256"
        }
      ],
      "stateMutability": "view",
      "type": "function"
    },
    {
      "inputs": [],
      "name": "MINIMUM_DEPOSIT",
      "outputs": [
        {
          "internalType": "uint256",
          "name": "",
          "type": "uint256"
        }
      ],
      "stateMutability": "view",
      "type": "function"
    },
    {
      "inputs": [],
      "name": "PROPOSAL_DELAY",
      "outputs": [
        {
          "internalType": "uint256",
          "name": "",
          "type": "uint256"
        }
      ],
      "stateMutability": "view",
      "type": "function"
    },
    {
      "inputs": [],
      "name": "VIRTUAL_SHARES",
      "outputs": [
        {
          "internalType": "uint256",
          "name": "",
          "type": "uint256"
        }
      ],
      "stateMutability": "view",
      "type": "function"
    },
    {
      "inputs": [
        {
          "internalType": "address",
          "name": "",
          "type": "address"
        }
      ],
      "name": "collectedManagementFees",
      "outputs": [
        {
          "internalType": "uint256",
          "name": "",
          "type": "uint256"
        }
      ],
      "stateMutability": "view",
      "type": "function"
    },
    {
      "inputs": [
        {
          "internalType": "address",
          "name": "token",
          "type": "address"
        },
        {
          "internalType": "uint256",
          "name": "amount",
          "type": "uint256"
        }
      ],
      "name": "deposit",
      "outputs": [],
      "stateMutability": "nonpayable",
      "type": "function"
    },
    {
      "inputs": [
        {
          "internalType": "address",
          "name": "",
          "type": "address"
        },
        {
          "internalType": "uint256",
          "name": "",
          "type": "uint256"
        }
      ],
      "name": "depositedTokensByUser",
      "outputs": [
        {
          "internalType": "address",
          "name": "",
          "type": "address"
        }
      ],
      "stateMutability": "view",
      "type": "function"
    },
    {
      "inputs": [
        {
          "internalType": "address",
          "name": "",
          "type": "address"
        },
        {
          "internalType": "address",
          "name": "",
          "type": "address"
        }
      ],
      "name": "deposits",
      "outputs": [
        {
          "internalType": "uint256",
          "name": "",
          "type": "uint256"
        }
      ],
      "stateMutability": "view",
      "type": "function"
    },
    {
      "inputs": [
        {
          "internalType": "address",
          "name": "token",
          "type": "address"
        },
        {
          "internalType": "uint256",
          "name": "newFeeBps",
          "type": "uint256"
        }
      ],
      "name": "executeLPFeeChange",
      "outputs": [],
      "stateMutability": "nonpayable",
      "type": "function"
    },
    {
      "inputs": [
        {
          "internalType": "address",
          "name": "token",
          "type": "address"
        },
        {
          "internalType": "uint256",
          "name": "amount",
          "type": "uint256"
        },
        {
          "internalType": "address",
          "name": "receiver",
          "type": "address"
        },
        {
          "internalType": "bytes",
          "name": "data",
          "type": "bytes"
        }
      ],
      "name": "flashLoan",
      "outputs": [],
      "stateMutability": "nonpayable",
      "type": "function"
    },
    {
      "inputs": [
        {
          "internalType": "address[]",
          "name": "tokens",
          "type": "address[]"
        },
        {
          "internalType": "uint256[]",
          "name": "amounts",
          "type": "uint256[]"
        },
        {
          "internalType": "address",
          "name": "receiver",
          "type": "address"
        },
        {
          "internalType": "bytes",
          "name": "data",
          "type": "bytes"
        }
      ],
      "name": "flashLoanMultiple",
      "outputs": [],
      "stateMutability": "nonpayable",
      "type": "function"
    },
    {
      "inputs": [],
      "name": "getDepositedTokens",
      "outputs": [
        {
          "internalType": "address[]",
          "name": "",
          "type": "address[]"
        }
      ],
      "stateMutability": "view",
      "type": "function"
    },
    {
      "inputs": [
        {
          "internalType": "address",
          "name": "token",
          "type": "address"
        }
      ],
      "name": "getEffectiveLPFee",
      "outputs": [
        {
          "internalType": "uint256",
          "name": "",
          "type": "uint256"
        }
      ],
      "stateMutability": "view",
      "type": "function"
    },
    {
      "inputs": [
        {
          "internalType": "address",
          "name": "user",
          "type": "address"
        }
      ],
      "name": "getUserDepositedTokens",
      "outputs": [
        {
          "internalType": "address[]",
          "name": "",
          "type": "address[]"
        }
      ],
      "stateMutability": "view",
      "type": "function"
    },
    {
      "inputs": [
        {
          "internalType": "address",
          "name": "token",
          "type": "address"
        },
        {
          "internalType": "address",
          "name": "user",
          "type": "address"
        }
      ],
      "name": "getWithdrawableAmount",
      "outputs": [
        {
          "internalType": "uint256",
          "name": "netAmount",
          "type": "uint256"
        },
        {
          "internalType": "uint256",
          "name": "grossAmount",
          "type": "uint256"
        },
        {
          "internalType": "uint256",
          "name": "principal",
          "type": "uint256"
        },
        {
          "internalType": "uint256",
          "name": "fees",
          "type": "uint256"
        },
        {
          "internalType": "uint256",
          "name": "exitFee",
          "type": "uint256"
        }
      ],
      "stateMutability": "view",
      "type": "function"
    },
    {
      "inputs": [
        {
          "internalType": "address",
          "name": "_owner",
          "type": "address"
        }
      ],
      "name": "initialize",
      "outputs": [],
      "stateMutability": "nonpayable",
      "type": "function"
    },
    {
      "inputs": [
        {
          "internalType": "address",
          "name": "",
          "type": "address"
        },
        {
          "internalType": "address",
          "name": "",
          "type": "address"
        }
      ],
      "name": "lpFeeAmountSelected",
      "outputs": [
        {
          "internalType": "uint256",
          "name": "",
          "type": "uint256"
        }
      ],
      "stateMutability": "view",
      "type": "function"
    },
    {
      "inputs": [
        {
          "internalType": "address",
          "name": "",
          "type": "address"
        },
        {
          "internalType": "uint256",
          "name": "",
          "type": "uint256"
        }
      ],
      "name": "lpFeeSharesTotalVotes",
      "outputs": [
        {
          "internalType": "uint256",
          "name": "",
          "type": "uint256"
        }
      ],
      "stateMutability": "view",
      "type": "function"
    },
    {
      "inputs": [
        {
          "internalType": "address",
          "name": "",
          "type": "address"
        }
      ],
      "name": "lpFeesBps",
      "outputs": [
        {
          "internalType": "uint256",
          "name": "",
          "type": "uint256"
        }
      ],
      "stateMutability": "view",
      "type": "function"
    },
    {
      "inputs": [],
      "name": "managementFeePercentage",
      "outputs": [
        {
          "internalType": "uint256",
          "name": "",
          "type": "uint256"
        }
      ],
      "stateMutability": "view",
      "type": "function"
    },
    {
      "inputs": [],
      "name": "owner",
      "outputs": [
        {
          "internalType": "address",
          "name": "",
          "type": "address"
        }
      ],
      "stateMutability": "view",
      "type": "function"
    },
    {
      "inputs": [
        {
          "internalType": "address",
          "name": "token",
          "type": "address"
        },
        {
          "internalType": "uint256",
          "name": "newFeeBps",
          "type": "uint256"
        }
      ],
      "name": "proposeLPFeeChange",
      "outputs": [],
      "stateMutability": "nonpayable",
      "type": "function"
    },
    {
      "inputs": [
        {
          "internalType": "address",
          "name": "",
          "type": "address"
        },
        {
          "internalType": "uint256",
          "name": "",
          "type": "uint256"
        }
      ],
      "name": "proposedFeeChanges",
      "outputs": [
        {
          "internalType": "uint256",
          "name": "",
          "type": "uint256"
        }
      ],
      "stateMutability": "view",
      "type": "function"
    },
    {
      "inputs": [],
      "name": "renounceOwnership",
      "outputs": [],
      "stateMutability": "nonpayable",
      "type": "function"
    },
    {
      "inputs": [
        {
          "internalType": "uint256",
          "name": "percentage",
          "type": "uint256"
        }
      ],
      "name": "setManagementFee",
      "outputs": [],
      "stateMutability": "nonpayable",
      "type": "function"
    },
    {
      "inputs": [
        {
          "internalType": "address",
          "name": "",
          "type": "address"
        },
        {
          "internalType": "address",
          "name": "",
          "type": "address"
        }
      ],
      "name": "shares",
      "outputs": [
        {
          "internalType": "uint256",
          "name": "",
          "type": "uint256"
        }
      ],
      "stateMutability": "view",
      "type": "function"
    },
    {
      "inputs": [
        {
          "internalType": "uint256",
          "name": "",
          "type": "uint256"
        }
      ],
      "name": "tokensDeposited",
      "outputs": [
        {
          "internalType": "address",
          "name": "",
          "type": "address"
        }
      ],
      "stateMutability": "view",
      "type": "function"
    },
    {
      "inputs": [
        {
          "internalType": "address",
          "name": "",
          "type": "address"
        }
      ],
      "name": "tokensDepositedIndex",
      "outputs": [
        {
          "internalType": "uint256",
          "name": "",
          "type": "uint256"
        }
      ],
      "stateMutability": "view",
      "type": "function"
    },
    {
      "inputs": [
        {
          "internalType": "address",
          "name": "",
          "type": "address"
        }
      ],
      "name": "totalLiquidity",
      "outputs": [
        {
          "internalType": "uint256",
          "name": "",
          "type": "uint256"
        }
      ],
      "stateMutability": "view",
      "type": "function"
    },
    {
      "inputs": [
        {
          "internalType": "address",
          "name": "",
          "type": "address"
        }
      ],
      "name": "totalShares",
      "outputs": [
        {
          "internalType": "uint256",
          "name": "",
          "type": "uint256"
        }
      ],
      "stateMutability": "view",
      "type": "function"
    },
    {
      "inputs": [
        {
          "internalType": "address",
          "name": "newOwner",
          "type": "address"
        }
      ],
      "name": "transferOwnership",
      "outputs": [],
      "stateMutability": "nonpayable",
      "type": "function"
    },
    {
      "inputs": [
        {
          "internalType": "address",
          "name": "",
          "type": "address"
        },
        {
          "internalType": "address",
          "name": "",
          "type": "address"
        }
      ],
      "name": "userDepositedTokensIndex",
      "outputs": [
        {
          "internalType": "uint256",
          "name": "",
          "type": "uint256"
        }
      ],
      "stateMutability": "view",
      "type": "function"
    },
    {
      "inputs": [
        {
          "internalType": "address",
          "name": "token",
          "type": "address"
        },
        {
          "internalType": "uint256",
          "name": "feeAmountBps",
          "type": "uint256"
        }
      ],
      "name": "voteForLPFee",
      "outputs": [],
      "stateMutability": "nonpayable",
      "type": "function"
    },
    {
      "inputs": [
        {
          "internalType": "address",
          "name": "token",
          "type": "address"
        }
      ],
      "name": "withdraw",
      "outputs": [],
      "stateMutability": "nonpayable",
      "type": "function"
    },
    {
      "inputs": [
        {
          "internalType": "address",
          "name": "token",
          "type": "address"
        }
      ],
      "name": "withdrawFees",
      "outputs": [],
      "stateMutability": "nonpayable",
      "type": "function"
    },
    {
      "inputs": [
        {
          "internalType": "address",
          "name": "token",
          "type": "address"
        }
      ],
      "name": "withdrawManagementFees",
      "outputs": [],
      "stateMutability": "nonpayable",
      "type": "function"
    }
  ],
  "bytecode": "0x608080604052346015576134cb908161001b8239f35b600080fdfe6080604052600436101561001257600080fd5b60003560e01c806301e055a1146128ec578063071a8ea81461289457806310073f7c14612836578063164e68de1461256c57806320c726c81461251457806323df4081146124d357806328e37bc8146124995780632a1a18cc1461245f5780633e6111a8146123df57806346c582271461239357806347e7ef2414611ecb57806351cff8d914611a945780635e71430f14611a0457806362c5a5e2146108385780636a08f229146119e85780636dfc692b146112ce578063715018a6146112285780637df44647146111d057806388c47f68146111b35780638aca4260146111965780638da5cb5b146111505780638f601f66146110f857806396fb004514610f15578063a3714c2d14610ef7578063acbf750314610d35578063adf51de114610969578063b423b79f1461083d578063b9bce21614610838578063bf6b874e146107fe578063c4d66de814610608578063c56326de146105ce578063ce57fead14610594578063dc0ab9141461054c578063f19451d81461052d578063f2fde38b14610502578063f46db04d146102d4578063f55b00151461028c578063fe0f38dc146102705763fe56e232146101c957600080fd5b3461026b57602036600319011261026b576004356101e5613270565b6101f481116102275760407ffac39c9265fbab8fd6b4293b3f584cb3b1c0c39fb315acbcd4d1bef067c340cd91600854908060085582519182526020820152a1005b606460405162461bcd60e51b815260206004820152601060248201527f466565206f7574206f662072616e6765000000000000000000000000000000006044820152fd5b600080fd5b3461026b57600036600319011261026b57602060405160018152f35b3461026b57604036600319011261026b576001600160a01b036102ad61293d565b16600052600360205260406000206024356000526020526020604060002054604051908152f35b3461026b57604036600319011261026b576102ed61293d565b6024356001600160a01b03821691610306831515612a86565b606482116104be576000838152602081905260408120546104ad575060015b821461046957826000526006602052604060002054156104255781610349916132d1565b156103bb57600a43018043116103a5577fea5c0b7c4ee534d8b0fb9fbbc5137f28be3543501219bfe9fd837a1ba79c1d4791604091846000526003602052826000208260005260205280836000205582519182526020820152a2005b634e487b7160e01b600052601160045260246000fd5b608460405162461bcd60e51b815260206004820152602360248201527f496e73756666696369656e7420737570706f727420666f72206665652063686160448201527f6e676500000000000000000000000000000000000000000000000000000000006064820152fd5b606460405162461bcd60e51b815260206004820152601160248201527f4e6f2073686172657320696e20706f6f6c0000000000000000000000000000006044820152fd5b606460405162461bcd60e51b815260206004820152600f60248201527f46656520616c72656164792073657400000000000000000000000000000000006044820152fd5b808460409252806020522054610325565b606460405162461bcd60e51b815260206004820152600c60248201527f46656520746f6f206869676800000000000000000000000000000000000000006044820152fd5b3461026b57602036600319011261026b5761052b61051e61293d565b610526613270565b612faf565b005b3461026b57600036600319011261026b5760206040516305f5e1008152f35b3461026b57604036600319011261026b576001600160a01b0361056d61293d565b16600052600160205260406000206024356000526020526020604060002054604051908152f35b3461026b57602036600319011261026b576001600160a01b036105b561293d565b1660005260006020526020604060002054604051908152f35b3461026b57602036600319011261026b576001600160a01b036105ef61293d565b1660005260056020526020604060002054604051908152f35b3461026b57602036600319011261026b5761062161293d565b7ff0c57e16840df040f15088dc2f81fe391c3923bec73e23a9662efc9c229c6a005460ff8160401c16159167ffffffffffffffff8216801590816107f6575b60011490816107ec575b1590816107e3575b506107b95767ffffffffffffffff1982166001177ff0c57e16840df040f15088dc2f81fe391c3923bec73e23a9662efc9c229c6a00556106c3918361077a575b506106bb61343c565b61052661343c565b6106cb61343c565b6106d361343c565b60017f9b779b17422d0df92223018b32b4d1fa46e071723d6817e2486d003becc55f00556106fd57005b68ff0000000000000000197ff0c57e16840df040f15088dc2f81fe391c3923bec73e23a9662efc9c229c6a0054167ff0c57e16840df040f15088dc2f81fe391c3923bec73e23a9662efc9c229c6a00557fc7f505b2f371ae2175ee4913f4499e1f2633a7b5936321eed1cdaeb6115181d2602060405160018152a1005b68ffffffffffffffffff191668010000000000000001177ff0c57e16840df040f15088dc2f81fe391c3923bec73e23a9662efc9c229c6a0055836106b2565b7ff92ee8a90000000000000000000000000000000000000000000000000000000060005260046000fd5b90501584610672565b303b15915061066a565b849150610660565b3461026b57602036600319011261026b576001600160a01b0361081f61293d565b1660005260066020526020604060002054604051908152f35b612a0b565b3461026b57602036600319011261026b576001600160a01b0361085e61293d565b610866613270565b61086e61307b565b1661087a811515612a86565b806000526009602052604060002054801561092557816108ff92600052600960205260006040812055807f583d1744b1f2b01833f7f10ff38436dd7a76ff50695a487bfb9f0f3d07749b496020604051858152a26001600160a01b037f9016d09d72d40fdae2fd8ceac6b6234c7706214fd39c1cd1e609a0528c1993005416906131b6565b60017f9b779b17422d0df92223018b32b4d1fa46e071723d6817e2486d003becc55f0055005b606460405162461bcd60e51b815260206004820152600760248201527f4e6f2066656573000000000000000000000000000000000000000000000000006044820152fd5b3461026b57608036600319011261026b5761098261293d565b60243561098d612969565b6064359267ffffffffffffffff841161026b576109b66001600160a01b03943690600401612a58565b9490916109c161307b565b16936109ce851515612a86565b6001600160a01b038316926109e4841515612cc6565b6109ef851515612dca565b856000526005602052610a09604060002054861115612e15565b610a1a610a1582613388565b612d11565b600086815260208190526040812054610d2357506001915b612710610a3f8488612b92565b0493610a4b8488612b92565b956305f5e100610a5e6008548099612b92565b0494610a6a8688612cb9565b97881580610d15575b610c95575b50509060249291610a89888a612cb9565b9160208b604051968780926370a0823160e01b82523060048301525afa948515610c1d578a918c91600097610c56575b5090610b04600092610ad0856020999a9b856131b6565b60405198899788968795631dd0e4ab60e31b8752600487015260248601526044850152608060648501526084840191612f43565b03925af18015610c1d57610c29575b50604051906370a0823160e01b82523060048301526020826024818a5afa908115610c1d578592600092610be4575b50610b5792610b5091612cb9565b1115612f64565b846000526009602052610b706040600020918254612cb9565b9055836000526005602052610b8b6040600020918254612cb9565b905560405191825260208201527f0d7d75e01ab95780d3cd1c8ec0dd6c2ce19e3a20427eec8bf53283b6fb8e95f060403392a360017f9b779b17422d0df92223018b32b4d1fa46e071723d6817e2486d003becc55f0055005b925090506020823d602011610c15575b81610c0160209383612b1c565b8101031261026b5790518491610b57610b42565b3d9150610bf4565b6040513d6000823e3d90fd5b610c4a9060203d602011610c4f575b610c428183612b1c565b810190612e74565b610b13565b503d610c38565b9596509150506020843d602011610c8d575b81610c7560209383612b1c565b8101031261026b579251939289908b90610b04610ab9565b3d9150610c68565b9295509295509550610cb4612710610cad8385612b92565b0483612cb9565b908115610d055715610cf657818004600114821517156103a557610cd791612b72565b928360010390600182116103a557602491935b6001969091928a610a78565b50506024600193600093610cea565b5050506024600193600093610cea565b506305f5e1008a1015610a73565b80876040925280602052205491610a32565b3461026b57604036600319011261026b57610d4e61293d565b6001600160a01b036024359116610d66811515612a86565b60648211610eb35780600052600760205260406000206001600160a01b0333166000526020526040600020548015610e6f5781600052600260205260406000206001600160a01b03331660005260205260406000205480610e42575b5081600052600260205260406000206001600160a01b033316600052602052826040600020558160005260016020526040600020836000526020526040600020610e0d828254612cb9565b905560405192835260208301527ff48a58e9d5afdf15234a1ebb420b39e7a14527250c15041b1cd8ec84c70b8ef060403393a3005b8260005260016020526040600020906000526020526040600020610e67828254612b65565b905583610dc2565b606460405162461bcd60e51b815260206004820152601160248201527f4e6f2073686172657320746f20766f74650000000000000000000000000000006044820152fd5b606460405162461bcd60e51b815260206004820152601360248201527f46656520616d6f756e7420746f6f2068696768000000000000000000000000006044820152fd5b3461026b57600036600319011261026b576020600854604051908152f35b3461026b57604036600319011261026b57610f2e61293d565b6024356001600160a01b03821691610f47831515612a86565b82600052600360205260406000208260005260205260406000205480156110b45743106110705781610f78916132d1565b156110065760407fb057abc153681100ec57c126c9edb0424f84eea13220b09f71ac8f09eb192b2a918360005260036020528160002081600052602052600082812055836000526000602052816000205415600090600014610ff557506001905b84600052600060205280836000205582519182526020820152a2005b808584925280602052205490610fd9565b608460405162461bcd60e51b815260206004820152602960248201527f50726f706f73616c206e6f206c6f6e676572206861732073756666696369656e60448201527f7420737570706f727400000000000000000000000000000000000000000000006064820152fd5b606460405162461bcd60e51b815260206004820152601660248201527f50726f706f73616c2064656c6179206e6f74206d6574000000000000000000006044820152fd5b606460405162461bcd60e51b815260206004820152601260248201527f4e6f2070726f706f73616c2065786973747300000000000000000000000000006044820152fd5b3461026b57604036600319011261026b5761111161293d565b6001600160a01b03611121612953565b911660005260046020526001600160a01b03604060002091166000526020526020604060002054604051908152f35b3461026b57600036600319011261026b5760206001600160a01b037f9016d09d72d40fdae2fd8ceac6b6234c7706214fd39c1cd1e609a0528c1993005416604051908152f35b3461026b57600036600319011261026b5760206040516101f48152f35b3461026b57600036600319011261026b5760206040516103e88152f35b3461026b57604036600319011261026b576111e961293d565b6001600160a01b036111f9612953565b911660005260076020526001600160a01b03604060002091166000526020526020604060002054604051908152f35b3461026b57600036600319011261026b57611241613270565b60006001600160a01b037f9016d09d72d40fdae2fd8ceac6b6234c7706214fd39c1cd1e609a0528c1993005473ffffffffffffffffffffffffffffffffffffffff1981167f9016d09d72d40fdae2fd8ceac6b6234c7706214fd39c1cd1e609a0528c19930055167f8be0079c531659141344cd1fd0a4f28419497f9722a3daafe3b4186f6b6457e08280a3005b3461026b57608036600319011261026b5760043567ffffffffffffffff811161026b576112ff903690600401612a27565b9060243567ffffffffffffffff811161026b57611320903690600401612a27565b929061132a612969565b9360643567ffffffffffffffff811161026b5761134b903690600401612a58565b959061135561307b565b6001600160a01b0382169061136b821515612cc6565b85156119a457838603611960576014861161191c579086868593611391610a1587613208565b61139a82612d74565b9a6113a483612d74565b896113ae85612d74565b9860005b8681106116b65750506113f7959360009361141b602099979461140961142d956040519d8e9c8d9b8c9a63393cbfeb60e21b8c52608060048d015260848c0191612e8c565b8981036003190160248b015291612ed2565b86810360031901604488015290612f0f565b84810360031901606486015291612f43565b03925af18015610c1d57611699575b5060005b8481106114d057867fa383ec6e920e9fac635159493ce80b1eff69de150ccb107d3965681c75a6d85f87876114a7611498898961148a604051968796606088526060880191612e8c565b918583036020870152612ed2565b82810360408401523395612f0f565b0390a260017f9b779b17422d0df92223018b32b4d1fa46e071723d6817e2486d003becc55f0055005b6114e36114de828789612da6565b612db6565b906114ef818587612da6565b356001600160a01b03611502838b612e60565b519316926040516370a0823160e01b8152306004820152602081602481885afa8015610c1d57600090611663575b6115499150610b5083611543878a612e60565b51612cb9565b600084815260208190526040812054611652575060015b61271061156d8285612b92565b049281600161157c8686612b65565b9414918261163a575b50506115cc575b50926001938160005260096020526115aa6040600020918254612cb9565b905560005260056020526115c46040600020918254612cb9565b905501611440565b9150506008546115e2612710610cad8385612b92565b90811561162b571561161d57818004600114821517156103a55761160591612b72565b8060010392600184116103a5576001935b909361158c565b505060019182906000611616565b50505060019182906000611616565b61271092509061164991612b92565b0415818d611585565b808560409252806020522054611560565b6020823d8211611691575b8161167b60209383612b1c565b8101031261168e57506115499051611530565b80fd5b3d915061166e565b6116b19060203d602011610c4f57610c428183612b1c565b61143c565b93968491959899506114de9250956116ce9396612da6565b906001600160a01b036116e2828b8d612da6565b3592166116f0811515612a86565b6116fb831515612dca565b806000526005602052611715604060002054841115612e15565b8060005260006020528d6040600020541560009060001461190a57506001905b6127106117428387612b92565b049161176b6117518288612b92565b936305f5e1006117646008548097612b92565b0490612cb9565b928315806118fc575b611869575b505081602495602094936117908761179695612e60565b52612cb9565b6117a08488612e60565b52604051938480926370a0823160e01b82523060048301525afa8015610c1d57898c8e8d938c889760009261181d575b50936001600160a01b036117ff6114de8960019b976118069782976117f98461180d9e9d612e60565b52612da6565b1694612da6565b35916131b6565b0192899289899796938d966113b2565b9697505093505050506020823d8211611861575b8161183e60209383612b1c565b8101031261168e5750518291908a908a908d908f908c6001600160a01b036117d0565b3d9150611831565b9190925061188461271061187d8486612b92565b0484612cb9565b9182156118e757156118d35750818004600114821517156103a5576118a891612b72565b60010390600182116103a5576117968f6024958591602095505b611790600195965050925095611779565b6020939250611796915060249585916118c2565b506020939250611796915060249585916118c2565b506305f5e100871015611774565b80836040925280602052205490611735565b606460405162461bcd60e51b815260206004820152600f60248201527f546f6f206d616e7920746f6b656e7300000000000000000000000000000000006044820152fd5b606460405162461bcd60e51b815260206004820152601660248201527f417272617973206c656e677468206d69736d61746368000000000000000000006044820152fd5b606460405162461bcd60e51b815260206004820152601360248201527f4e6f20746f6b656e7320737065636966696564000000000000000000000000006044820152fd5b3461026b57600036600319011261026b576020604051600a8152f35b3461026b57600036600319011261026b57604051806020600a54918281520190600a6000527fc65a7bb8d6351c1cf70c95a316cc6a92839c986682d98bc35f958f4883f9d2a89060005b818110611a7557611a7185611a6581870382612b1c565b604051918291826129c8565b0390f35b82546001600160a01b0316845260209093019260019283019201611a4e565b3461026b57602036600319011261026b57611aad61293d565b611ab561307b565b6001600160a01b038116611aca811515612a86565b80600052600760205260406000206001600160a01b033316600052602052611af86040600020541515612ad1565b6040516346c5822760e01b81526001600160a01b03831660048201523360248201529060a082604481305afa918215610c1d5760009283918491611e91575b506305f5e1008410611e275760008381526007602090815260408083203380855290835281842080548886526004855283862092865291845282852085905584905586845260069092529091208054919691611b94908890612b65565b90558360005260056020526040600020611baf868254612b65565b905533600052600d60205260406000208460005260205260406000205480611d3c575b5083600052600b60205260406000205480611c33575b5090611bfb6108ff9685949333906130f4565b60405191825260208201527ff341246adaac6f497bc2a656f546ab9e182111d630394f0c57c710a59a2cb56760403392a333906131b6565b8460005260066020526103e860406000205411611be857600a549193929160001981019081116103a55780821115611cd6575b5050600a548015611cc0576108ff968594611bfb9260001901611ca2611c8d82600a6129b0565b6001600160a01b0382549160031b1b19169055565b600a5585600052600b60205260006040812055929394509650611be8565b634e487b7160e01b600052603160045260246000fd5b611ce76001600160a01b039161297f565b90549060031b1c1660001982018281116103a55781611d08611d279261297f565b9091906001600160a01b038084549260031b9316831b921b1916179055565b600052600b6020526040600020558680611c66565b33600052600c60205260406000205460001981019081116103a55780821115611dad575b505033600052600c602052604060002080548015611cc0576000190190611d8a611c8d83836129b0565b5533600052600d6020526040600020846000526020526000604081205586611bd2565b611dcc6001600160a01b039133600052600c60205260406000206129b0565b90549060031b1c1633600052600c602052604060002060001983018381116103a557611d088391611dfc936129b0565b33600052600d6020526001600160a01b03604060002091166000526020526040600020558680611d60565b608460405162461bcd60e51b815260206004820152602d60248201527f5769746864726177616c20746f6f20736d616c6c20616674657220454e54525960448201527f5f455849545f46454520666565000000000000000000000000000000000000006064820152fd5b915050611eb791925060a03d60a011611ec4575b611eaf8183612b1c565b810190612b3e565b5091509291929085611b37565b503d611ea5565b3461026b57604036600319011261026b57611ee461293d565b602435611eef61307b565b6001600160a01b038216611f04811515612a86565b6305f5e100821061234f576063198201928284116103a55783156122e557816000526006602052604060002054156000146121ed5783908260005260076020526040600020600080526020526103e86040600020558260005260066020526103e86040600020558260005260056020526103e86040600020555b82600052600460205260406000206001600160a01b0333166000526020526040600020611fac868254612cb9565b905582600052600760205260406000206001600160a01b0333166000526020526040600020611fdc838254612cb9565b90558260005260066020526040600020611ff7838254612cb9565b90558260005260056020526040600020612012858254612cb9565b905582600052600b602052604060002054156121ac575b33600052600d60205260406000208360005260205260406000205415612129575b506108ff93829182600052600260205260406000206001600160a01b033316600052602052604060002054806120fc575b5060405191825260208201527fdcbc1c05240f31ff3ad067ef1ee35ce4997762752e3a095284754544f4c709d760403392a3604051917f23b872dd0000000000000000000000000000000000000000000000000000000060208401523360248401523060448401526064830152606482526120f7608483612b1c565b6133cb565b8360005260016020526040600020906000526020526040600020612121828254612cb9565b90558661207b565b9333600052600c602052604060002091825468010000000000000000811015612196576108ff96611d088287966001612164950181556129b0565b33600052600c60205260406000205433600052600d60205260406000208460005260205260406000205591509361204a565b634e487b7160e01b600052604160045260246000fd5b600a54680100000000000000008110156121965781611d088260016121d69401600a55600a6129b0565b600a5483600052600b602052604060002055612029565b816000526005602052604060002054156122a15781600052600660205261223161221c60406000205486612b92565b83600052600560205260406000205490612b72565b9081611f7e57608460405162461bcd60e51b815260206004820152602760248201527f4465706f73697420746f6f20736d616c6c20666f722063757272656e7420706f60448201527f6f6c2073697a65000000000000000000000000000000000000000000000000006064820152fd5b606460405162461bcd60e51b815260206004820152601760248201527f496e76616c6964206c69717569646974792073746174650000000000000000006044820152fd5b608460405162461bcd60e51b815260206004820152602960248201527f416d6f756e7420746f6f20736d616c6c20616674657220454e5452595f45584960448201527f545f4645452066656500000000000000000000000000000000000000000000006064820152fd5b606460405162461bcd60e51b815260206004820152601160248201527f4465706f73697420746f6f20736d616c6c0000000000000000000000000000006044820152fd5b3461026b57604036600319011261026b5760a06123bf6123b161293d565b6123b9612953565b90612ba5565b926040929192519485526020850152604084015260608301526080820152f35b3461026b57602036600319011261026b576001600160a01b0361240061293d565b16600052600c602052604060002060405190816020825491828152019160005260206000209060005b81811061244057611a7185611a6581870382612b1c565b82546001600160a01b0316845260209093019260019283019201612429565b3461026b57602036600319011261026b576001600160a01b0361248061293d565b16600052600b6020526020604060002054604051908152f35b3461026b57602036600319011261026b576001600160a01b036124ba61293d565b1660005260096020526020604060002054604051908152f35b3461026b57602036600319011261026b57600435600a5481101561026b576001600160a01b0361250460209261297f565b90549060031b1c16604051908152f35b3461026b57604036600319011261026b5761252d61293d565b6001600160a01b0361253d612953565b9116600052600d6020526001600160a01b03604060002091166000526020526020604060002054604051908152f35b3461026b57602036600319011261026b5761258561293d565b61258d61307b565b6001600160a01b038116906125a3821515612a86565b81600052600760205260406000206001600160a01b0333166000526020526125d16040600020541515612ad1565b6040516346c5822760e01b81526001600160a01b03821660048201523360248201529160a083604481305afa928315610c1d5760009360009160009161280c575b5081156127c857808211156127845761262a91612b65565b91620f424083106127405781600052600760205260406000206001600160a01b03331660005260205260406000205490670de0b6b3a76400008402848104670de0b6b3a764000014851517156103a55761269d61270c936126976108ff98670de0b6b3a764000094612b72565b90612b92565b049083600052600760205260406000206001600160a01b03331660005260205260406000206126cd838254612b65565b905583600052600660205260406000206126e8838254612b65565b90558360005260056020526040600020612703868254612b65565b905533906130f4565b806040518381527f5e110f8bc8a20b65dcc87f224bdf1cc039346e267118bae2739847f07321ffa860203392a333906131b6565b606460405162461bcd60e51b815260206004820152601860248201527f466565207769746864726177616c20746f6f20736d616c6c00000000000000006044820152fd5b606460405162461bcd60e51b815260206004820152601d60248201527f4665657320746f6f20736d616c6c2061667465722065786974206665650000006044820152fd5b606460405162461bcd60e51b815260206004820152601360248201527f4e6f206665657320746f207769746864726177000000000000000000000000006044820152fd5b91505061282991935060a03d60a011611ec457611eaf8183612b1c565b9295935091905085612612565b3461026b57602036600319011261026b576001600160a01b0361285761293d565b168060005260006020526040600020541590600091600014612882575050602060015b604051908152f35b8160409160209352808352205461287a565b3461026b57604036600319011261026b576128ad61293d565b6001600160a01b036128bd612953565b911660005260026020526001600160a01b03604060002091166000526020526020604060002054604051908152f35b3461026b57604036600319011261026b5761290561293d565b6001600160a01b036024359116600052600c602052604060002090815481101561026b576125046001600160a01b03916020936129b0565b600435906001600160a01b038216820361026b57565b602435906001600160a01b038216820361026b57565b604435906001600160a01b038216820361026b57565b600a5481101561299a57600a60005260206000200190600090565b634e487b7160e01b600052603260045260246000fd5b805482101561299a5760005260206000200190600090565b602060408183019282815284518094520192019060005b8181106129ec5750505090565b82516001600160a01b03168452602093840193909201916001016129df565b3461026b57600036600319011261026b57602060405160648152f35b9181601f8401121561026b5782359167ffffffffffffffff831161026b576020808501948460051b01011161026b57565b9181601f8401121561026b5782359167ffffffffffffffff831161026b576020838186019501011161026b57565b15612a8d57565b606460405162461bcd60e51b815260206004820152600d60248201527f496e76616c696420746f6b656e000000000000000000000000000000000000006044820152fd5b15612ad857565b606460405162461bcd60e51b815260206004820152601360248201527f4e6f7468696e6720746f207769746864726177000000000000000000000000006044820152fd5b90601f8019910116810190811067ffffffffffffffff82111761219657604052565b908160a091031261026b578051916020820151916040810151916080606083015192015190565b919082039182116103a557565b8115612b7c570490565b634e487b7160e01b600052601260045260246000fd5b818102929181159184041417156103a557565b6001600160a01b0390929192169182600052600760205260406000206001600160a01b03821660005260205260406000205480158015612ca3575b612c9357612c00612c159185600052600560205260406000205490612b92565b84600052600660205260406000205490612b72565b918360005260056020526040600020548311612c7c575b60649160631984018481116103a5579460005260046020526001600160a01b036040600020911660005260205260406000205491828411600014612c7757612c748385612b65565b91565b600091565b915082600052600560205260406000205491612c2c565b5060009250829182915081908190565b5083600052600660205260406000205415612be0565b919082018092116103a557565b15612ccd57565b606460405162461bcd60e51b815260206004820152601060248201527f496e76616c6964207265636569766572000000000000000000000000000000006044820152fd5b15612d1857565b606460405162461bcd60e51b815260206004820152601a60248201527f496e76616c696420726563656976657220696e746572666163650000000000006044820152fd5b67ffffffffffffffff81116121965760051b60200190565b90612d7e82612d5c565b612d8b6040519182612b1c565b8281528092612d9c601f1991612d5c565b0190602036910137565b919081101561299a5760051b0190565b356001600160a01b038116810361026b5790565b15612dd157565b606460405162461bcd60e51b815260206004820152600e60248201527f496e76616c696420616d6f756e740000000000000000000000000000000000006044820152fd5b15612e1c57565b606460405162461bcd60e51b815260206004820152601460248201527f4e6f7420656e6f756768206c69717569646974790000000000000000000000006044820152fd5b805182101561299a5760209160051b010190565b9081602091031261026b5751801515810361026b5790565b916020908281520191906000905b808210612ea75750505090565b9091928335906001600160a01b03821680920361026b57602081600193829352019401920190612e9a565b90918281527f07ffffffffffffffffffffffffffffffffffffffffffffffffffffffffffffff831161026b5760209260051b809284830137010190565b906020808351928381520192019060005b818110612f2d5750505090565b8251845260209384019390920191600101612f20565b908060209392818452848401376000828201840152601f01601f1916010190565b15612f6b57565b606460405162461bcd60e51b815260206004820152601560248201527f466c617368206c6f616e206e6f742072657061696400000000000000000000006044820152fd5b6001600160a01b0316801561304c576001600160a01b037f9016d09d72d40fdae2fd8ceac6b6234c7706214fd39c1cd1e609a0528c199300548273ffffffffffffffffffffffffffffffffffffffff198216177f9016d09d72d40fdae2fd8ceac6b6234c7706214fd39c1cd1e609a0528c19930055167f8be0079c531659141344cd1fd0a4f28419497f9722a3daafe3b4186f6b6457e0600080a3565b7f1e4fbdf700000000000000000000000000000000000000000000000000000000600052600060045260246000fd5b60027f9b779b17422d0df92223018b32b4d1fa46e071723d6817e2486d003becc55f0054146130ca5760027f9b779b17422d0df92223018b32b4d1fa46e071723d6817e2486d003becc55f0055565b7f3ee5aeb50000000000000000000000000000000000000000000000000000000060005260046000fd5b90916001600160a01b0360009216918281526002602052604081206001600160a01b038516825260205260408120549081613131575b5050505050565b508260005260016020526040600020906000526020526131576040600020918254612b65565b905580600052600760205260406000206001600160a01b0383166000526020526040600020541561318b575b80808061312a565b60005260026020526001600160a01b0360406000209116600052602052600060408120553880613183565b613206926001600160a01b03604051937fa9059cbb0000000000000000000000000000000000000000000000000000000060208601521660248401526044830152604482526120f7606483612b1c565b565b60206001600160a01b03916024604051809481936301ffc9a760e01b835263393cbfeb60e21b600484015216617530fa6000918161324f575b5061324c5750600090565b90565b61326991925060203d602011610c4f57610c428183612b1c565b9038613241565b6001600160a01b037f9016d09d72d40fdae2fd8ceac6b6234c7706214fd39c1cd1e609a0528c199300541633036132a357565b7f118cdaa7000000000000000000000000000000000000000000000000000000006000523360045260246000fd5b6001600160a01b031660008181526020819052604081205461337657506001915b81600052600660205260406000205492831561336d57600092835260016020908152604080852092855291905280832054918352909120549061271080820291808304909114901517156103a5578261334a91612b72565b9161271082029180830461271014901517156103a55761336991612b72565b1190565b50505050600090565b808260409252806020522054916132f2565b60206001600160a01b03916024604051809481936301ffc9a760e01b8352631dd0e4ab60e31b600484015216617530fa6000918161324f575061324c5750600090565b906000602091828151910182855af115610c1d576000513d61343357506001600160a01b0381163b155b6133fc5750565b6001600160a01b03907f5274afe7000000000000000000000000000000000000000000000000000000006000521660045260246000fd5b600114156133f5565b60ff7ff0c57e16840df040f15088dc2f81fe391c3923bec73e23a9662efc9c229c6a005460401c161561346b57565b7fd7e6bcf80000000000000000000000000000000000000000000000000000000060005260046000fdfea2646970667358221220194abc646bad51bdc65fb2ed7d12712e0940949170009f75722dc6ea5a6d615b64736f6c634300081c0033",
  "linkReferences": {},
  "deployedLinkReferences": {}
}